{
  "contractName": "GoogleForm",
  "abi": [
    {
      "inputs": [],
      "stateMutability": "nonpayable",
      "type": "constructor"
    },
    {
      "anonymous": false,
      "inputs": [
        {
          "indexed": true,
          "internalType": "address",
          "name": "from",
          "type": "address"
        },
        {
          "indexed": false,
          "internalType": "string",
          "name": "name",
          "type": "string"
        },
        {
          "indexed": false,
          "internalType": "string",
          "name": "usn",
          "type": "string"
        },
        {
          "indexed": false,
          "internalType": "string",
          "name": "phone",
          "type": "string"
        },
        {
          "indexed": false,
          "internalType": "string",
          "name": "email",
          "type": "string"
        }
      ],
      "name": "FormSubmitted",
      "type": "event"
    },
    {
      "anonymous": false,
      "inputs": [
        {
          "indexed": true,
          "internalType": "address",
          "name": "oldOwner",
          "type": "address"
        },
        {
          "indexed": true,
          "internalType": "address",
          "name": "newOwner",
          "type": "address"
        }
      ],
      "name": "OwnerChanged",
      "type": "event"
    },
    {
      "inputs": [],
      "name": "owner",
      "outputs": [
        {
          "internalType": "address",
          "name": "",
          "type": "address"
        }
      ],
      "stateMutability": "view",
      "type": "function",
      "constant": true
    },
    {
      "inputs": [
        {
          "internalType": "string",
          "name": "_name",
          "type": "string"
        },
        {
          "internalType": "string",
          "name": "_usn",
          "type": "string"
        },
        {
          "internalType": "string",
          "name": "_phone",
          "type": "string"
        },
        {
          "internalType": "string",
          "name": "_email",
          "type": "string"
        }
      ],
      "name": "submitForm",
      "outputs": [],
      "stateMutability": "nonpayable",
      "type": "function"
    },
    {
      "inputs": [],
      "name": "getEntries",
      "outputs": [
        {
          "components": [
            {
              "internalType": "string",
              "name": "name",
              "type": "string"
            },
            {
              "internalType": "string",
              "name": "usn",
              "type": "string"
            },
            {
              "internalType": "string",
              "name": "phone",
              "type": "string"
            },
            {
              "internalType": "string",
              "name": "email",
              "type": "string"
            }
          ],
          "internalType": "struct GoogleForm.FormEntry[]",
          "name": "",
          "type": "tuple[]"
        }
      ],
      "stateMutability": "view",
      "type": "function",
      "constant": true
    },
    {
      "inputs": [
        {
          "internalType": "address",
          "name": "newOwner",
          "type": "address"
        }
      ],
      "name": "changeOwner",
      "outputs": [],
      "stateMutability": "nonpayable",
      "type": "function"
    }
  ],
  "bytecode": "0x608060405234801561000f575f80fd5b50335f806101000a81548173ffffffffffffffffffffffffffffffffffffffff021916908373ffffffffffffffffffffffffffffffffffffffff1602179055506111218061005c5f395ff3fe608060405234801561000f575f80fd5b506004361061004a575f3560e01c806317be85c31461004e5780638da5cb5b1461006c578063a6f9dae11461008a578063cf301c4a146100a6575b5f80fd5b6100566100c2565b604051610063919061095c565b60405180910390f35b6100746103ea565b60405161008191906109bb565b60405180910390f35b6100a4600480360381019061009f9190610a0f565b61040d565b005b6100c060048036038101906100bb9190610b66565b6105c3565b005b60605f8054906101000a900473ffffffffffffffffffffffffffffffffffffffff1673ffffffffffffffffffffffffffffffffffffffff163373ffffffffffffffffffffffffffffffffffffffff1614610151576040517f08c379a000000000000000000000000000000000000000000000000000000000815260040161014890610c94565b60405180910390fd5b6001805480602002602001604051908101604052809291908181526020015f905b828210156103e1578382905f5260205f2090600402016040518060800160405290815f820180546101a290610cdf565b80601f01602080910402602001604051908101604052809291908181526020018280546101ce90610cdf565b80156102195780601f106101f057610100808354040283529160200191610219565b820191905f5260205f20905b8154815290600101906020018083116101fc57829003601f168201915b5050505050815260200160018201805461023290610cdf565b80601f016020809104026020016040519081016040528092919081815260200182805461025e90610cdf565b80156102a95780601f10610280576101008083540402835291602001916102a9565b820191905f5260205f20905b81548152906001019060200180831161028c57829003601f168201915b505050505081526020016002820180546102c290610cdf565b80601f01602080910402602001604051908101604052809291908181526020018280546102ee90610cdf565b80156103395780601f1061031057610100808354040283529160200191610339565b820191905f5260205f20905b81548152906001019060200180831161031c57829003601f168201915b5050505050815260200160038201805461035290610cdf565b80601f016020809104026020016040519081016040528092919081815260200182805461037e90610cdf565b80156103c95780601f106103a0576101008083540402835291602001916103c9565b820191905f5260205f20905b8154815290600101906020018083116103ac57829003601f168201915b50505050508152505081526020019060010190610172565b50505050905090565b5f8054906101000a900473ffffffffffffffffffffffffffffffffffffffff1681565b5f8054906101000a900473ffffffffffffffffffffffffffffffffffffffff1673ffffffffffffffffffffffffffffffffffffffff163373ffffffffffffffffffffffffffffffffffffffff161461049a576040517f08c379a000000000000000000000000000000000000000000000000000000000815260040161049190610c94565b60405180910390fd5b5f73ffffffffffffffffffffffffffffffffffffffff168173ffffffffffffffffffffffffffffffffffffffff1603610508576040517f08c379a00000000000000000000000000000000000000000000000000000000081526004016104ff90610d59565b60405180910390fd5b8073ffffffffffffffffffffffffffffffffffffffff165f8054906101000a900473ffffffffffffffffffffffffffffffffffffffff1673ffffffffffffffffffffffffffffffffffffffff167fb532073b38c83145e3e5135377a08bf9aab55bc0fd7c1179cd4fb995d2a5159c60405160405180910390a3805f806101000a81548173ffffffffffffffffffffffffffffffffffffffff021916908373ffffffffffffffffffffffffffffffffffffffff16021790555050565b60025f3373ffffffffffffffffffffffffffffffffffffffff1673ffffffffffffffffffffffffffffffffffffffff1681526020019081526020015f205f9054906101000a900460ff161561064d576040517f08c379a000000000000000000000000000000000000000000000000000000000815260040161064490610dc1565b60405180910390fd5b5f6040518060800160405280868152602001858152602001848152602001838152509050600181908060018154018082558091505060019003905f5260205f2090600402015f909190919091505f820151815f0190816106ad9190610f85565b5060208201518160010190816106c39190610f85565b5060408201518160020190816106d99190610f85565b5060608201518160030190816106ef9190610f85565b505050600160025f3373ffffffffffffffffffffffffffffffffffffffff1673ffffffffffffffffffffffffffffffffffffffff1681526020019081526020015f205f6101000a81548160ff0219169083151502179055503373ffffffffffffffffffffffffffffffffffffffff167f021498edd9f229521271eabecf2ca2220d9b1ea15abad84ccae5f38d6a9777d686868686604051610793949392919061108c565b60405180910390a25050505050565b5f81519050919050565b5f82825260208201905092915050565b5f819050602082019050919050565b5f81519050919050565b5f82825260208201905092915050565b5f5b838110156108025780820151818401526020810190506107e7565b5f8484015250505050565b5f601f19601f8301169050919050565b5f610827826107cb565b61083181856107d5565b93506108418185602086016107e5565b61084a8161080d565b840191505092915050565b5f608083015f8301518482035f86015261086f828261081d565b91505060208301518482036020860152610889828261081d565b915050604083015184820360408601526108a3828261081d565b915050606083015184820360608601526108bd828261081d565b9150508091505092915050565b5f6108d58383610855565b905092915050565b5f602082019050919050565b5f6108f3826107a2565b6108fd81856107ac565b93508360208202850161090f856107bc565b805f5b8581101561094a578484038952815161092b85826108ca565b9450610936836108dd565b925060208a01995050600181019050610912565b50829750879550505050505092915050565b5f6020820190508181035f83015261097481846108e9565b905092915050565b5f73ffffffffffffffffffffffffffffffffffffffff82169050919050565b5f6109a58261097c565b9050919050565b6109b58161099b565b82525050565b5f6020820190506109ce5f8301846109ac565b92915050565b5f604051905090565b5f80fd5b5f80fd5b6109ee8161099b565b81146109f8575f80fd5b50565b5f81359050610a09816109e5565b92915050565b5f60208284031215610a2457610a236109dd565b5b5f610a31848285016109fb565b91505092915050565b5f80fd5b5f80fd5b7f4e487b71000000000000000000000000000000000000000000000000000000005f52604160045260245ffd5b610a788261080d565b810181811067ffffffffffffffff82111715610a9757610a96610a42565b5b80604052505050565b5f610aa96109d4565b9050610ab58282610a6f565b919050565b5f67ffffffffffffffff821115610ad457610ad3610a42565b5b610add8261080d565b9050602081019050919050565b828183375f83830152505050565b5f610b0a610b0584610aba565b610aa0565b905082815260208101848484011115610b2657610b25610a3e565b5b610b31848285610aea565b509392505050565b5f82601f830112610b4d57610b4c610a3a565b5b8135610b5d848260208601610af8565b91505092915050565b5f805f8060808587031215610b7e57610b7d6109dd565b5b5f85013567ffffffffffffffff811115610b9b57610b9a6109e1565b5b610ba787828801610b39565b945050602085013567ffffffffffffffff811115610bc857610bc76109e1565b5b610bd487828801610b39565b935050604085013567ffffffffffffffff811115610bf557610bf46109e1565b5b610c0187828801610b39565b925050606085013567ffffffffffffffff811115610c2257610c216109e1565b5b610c2e87828801610b39565b91505092959194509250565b5f82825260208201905092915050565b7f4e6f7420617574686f72697a65640000000000000000000000000000000000005f82015250565b5f610c7e600e83610c3a565b9150610c8982610c4a565b602082019050919050565b5f6020820190508181035f830152610cab81610c72565b9050919050565b7f4e487b71000000000000000000000000000000000000000000000000000000005f52602260045260245ffd5b5f6002820490506001821680610cf657607f821691505b602082108103610d0957610d08610cb2565b5b50919050565b7f496e76616c6964206164647265737300000000000000000000000000000000005f82015250565b5f610d43600f83610c3a565b9150610d4e82610d0f565b602082019050919050565b5f6020820190508181035f830152610d7081610d37565b9050919050565b7f466f726d20616c7265616479207375626d6974746564000000000000000000005f82015250565b5f610dab601683610c3a565b9150610db682610d77565b602082019050919050565b5f6020820190508181035f830152610dd881610d9f565b9050919050565b5f819050815f5260205f209050919050565b5f6020601f8301049050919050565b5f82821b905092915050565b5f60088302610e3b7fffffffffffffffffffffffffffffffffffffffffffffffffffffffffffffffff82610e00565b610e458683610e00565b95508019841693508086168417925050509392505050565b5f819050919050565b5f819050919050565b5f610e89610e84610e7f84610e5d565b610e66565b610e5d565b9050919050565b5f819050919050565b610ea283610e6f565b610eb6610eae82610e90565b848454610e0c565b825550505050565b5f90565b610eca610ebe565b610ed5818484610e99565b505050565b5b81811015610ef857610eed5f82610ec2565b600181019050610edb565b5050565b601f821115610f3d57610f0e81610ddf565b610f1784610df1565b81016020851015610f26578190505b610f3a610f3285610df1565b830182610eda565b50505b505050565b5f82821c905092915050565b5f610f5d5f1984600802610f42565b1980831691505092915050565b5f610f758383610f4e565b9150826002028217905092915050565b610f8e826107cb565b67ffffffffffffffff811115610fa757610fa6610a42565b5b610fb18254610cdf565b610fbc828285610efc565b5f60209050601f831160018114610fed575f8415610fdb578287015190505b610fe58582610f6a565b86555061104c565b601f198416610ffb86610ddf565b5f5b8281101561102257848901518255600182019150602085019450602081019050610ffd565b8683101561103f578489015161103b601f891682610f4e565b8355505b6001600288020188555050505b505050505050565b5f61105e826107cb565b6110688185610c3a565b93506110788185602086016107e5565b6110818161080d565b840191505092915050565b5f6080820190508181035f8301526110a48187611054565b905081810360208301526110b88186611054565b905081810360408301526110cc8185611054565b905081810360608301526110e08184611054565b90509594505050505056fea26469706673582212207a79e070d387a88b5d06297377439cca045bbdb79a19706d50986446b1667bd864736f6c63430008150033",
  "immutableReferences": {},
  "source": "// SPDX-License-Identifier: MIT\npragma solidity ^0.8.0;\n\ncontract GoogleForm {\n\n    struct FormEntry {\n        string name;\n        string usn;\n        string phone;\n        string email;\n    }\n\n    address public owner;\n    FormEntry[] private entries;\n    mapping(address => bool) private hasSubmitted;\n\n    event FormSubmitted(address indexed from, string name, string usn, string phone, string email);\n    event OwnerChanged(address indexed oldOwner, address indexed newOwner);\n\n    modifier onlyOwner() {\n        require(msg.sender == owner, \"Not authorized\");\n        _;\n    }\n\n    modifier hasNotSubmitted() {\n        require(!hasSubmitted[msg.sender], \"Form already submitted\");\n        _;\n    }\n\n    constructor() {\n        owner = msg.sender;\n    }\n\n    function submitForm(string memory _name, string memory _usn, string memory _phone, string memory _email) \n        public hasNotSubmitted \n    {\n        FormEntry memory newEntry = FormEntry({\n            name: _name,\n            usn: _usn,\n            phone: _phone,\n            email: _email\n        });\n\n        entries.push(newEntry);\n        hasSubmitted[msg.sender] = true;\n\n        emit FormSubmitted(msg.sender, _name, _usn, _phone, _email);\n    }\n\n    function getEntries() public view onlyOwner returns (FormEntry[] memory) {\n        return entries;\n    }\n\n    function changeOwner(address newOwner) public onlyOwner {\n        require(newOwner != address(0), \"Invalid address\");\n        emit OwnerChanged(owner, newOwner);\n        owner = newOwner;\n    }\n}\n",
  "sourcePath": "/home/adarsh/blockchain-tut/etherium/contracts/GoogleForm.sol",
  "compiler": {
    "name": "solc",
    "version": "0.8.21+commit.d9974bed.Emscripten.clang"
  },
  "schemaVersion": "3.4.16",
  "updatedAt": "2024-07-06T17:18:57.745Z",
  "networkType": "ethereum",
  "devdoc": {
    "kind": "dev",
    "methods": {},
    "version": 1
  },
  "userdoc": {
    "kind": "user",
    "methods": {},
    "version": 1
  }
}